{
  "address": "0x44f1de22eBCDFA843F96E126b24889Abb7519804",
  "abi": [
    {
      "inputs": [
        {
          "internalType": "address",
          "name": "_tokenA",
          "type": "address"
        },
        {
          "internalType": "address",
          "name": "_tokenB",
          "type": "address"
        }
      ],
      "stateMutability": "nonpayable",
      "type": "constructor"
    },
    {
      "inputs": [
        {
          "internalType": "address",
          "name": "owner",
          "type": "address"
        }
      ],
      "name": "OwnableInvalidOwner",
      "type": "error"
    },
    {
      "inputs": [
        {
          "internalType": "address",
          "name": "account",
          "type": "address"
        }
      ],
      "name": "OwnableUnauthorizedAccount",
      "type": "error"
    },
    {
      "inputs": [],
      "name": "ReentrancyGuardReentrantCall",
      "type": "error"
    },
    {
      "anonymous": false,
      "inputs": [
        {
          "indexed": true,
          "internalType": "address",
          "name": "provider",
          "type": "address"
        },
        {
          "indexed": false,
          "internalType": "uint256",
          "name": "amountA",
          "type": "uint256"
        },
        {
          "indexed": false,
          "internalType": "uint256",
          "name": "amountB",
          "type": "uint256"
        }
      ],
      "name": "LiquidityAdded",
      "type": "event"
    },
    {
      "anonymous": false,
      "inputs": [
        {
          "indexed": true,
          "internalType": "address",
          "name": "provider",
          "type": "address"
        },
        {
          "indexed": false,
          "internalType": "uint256",
          "name": "amountA",
          "type": "uint256"
        },
        {
          "indexed": false,
          "internalType": "uint256",
          "name": "amountB",
          "type": "uint256"
        }
      ],
      "name": "LiquidityRemoved",
      "type": "event"
    },
    {
      "anonymous": false,
      "inputs": [
        {
          "indexed": true,
          "internalType": "address",
          "name": "previousOwner",
          "type": "address"
        },
        {
          "indexed": true,
          "internalType": "address",
          "name": "newOwner",
          "type": "address"
        }
      ],
      "name": "OwnershipTransferred",
      "type": "event"
    },
    {
      "anonymous": false,
      "inputs": [
        {
          "indexed": true,
          "internalType": "address",
          "name": "user",
          "type": "address"
        },
        {
          "indexed": false,
          "internalType": "address",
          "name": "tokenIn",
          "type": "address"
        },
        {
          "indexed": false,
          "internalType": "address",
          "name": "tokenOut",
          "type": "address"
        },
        {
          "indexed": false,
          "internalType": "uint256",
          "name": "amountIn",
          "type": "uint256"
        },
        {
          "indexed": false,
          "internalType": "uint256",
          "name": "amountOut",
          "type": "uint256"
        }
      ],
      "name": "TokenSwapped",
      "type": "event"
    },
    {
      "inputs": [
        {
          "internalType": "uint256",
          "name": "amountA",
          "type": "uint256"
        },
        {
          "internalType": "uint256",
          "name": "amountB",
          "type": "uint256"
        }
      ],
      "name": "addLiquidity",
      "outputs": [],
      "stateMutability": "nonpayable",
      "type": "function"
    },
    {
      "inputs": [
        {
          "internalType": "address",
          "name": "_token",
          "type": "address"
        }
      ],
      "name": "getPrice",
      "outputs": [
        {
          "internalType": "uint256",
          "name": "",
          "type": "uint256"
        }
      ],
      "stateMutability": "view",
      "type": "function"
    },
    {
      "inputs": [],
      "name": "getReserves",
      "outputs": [
        {
          "internalType": "uint256",
          "name": "reserveA",
          "type": "uint256"
        },
        {
          "internalType": "uint256",
          "name": "reserveB",
          "type": "uint256"
        }
      ],
      "stateMutability": "view",
      "type": "function"
    },
    {
      "inputs": [],
      "name": "owner",
      "outputs": [
        {
          "internalType": "address",
          "name": "",
          "type": "address"
        }
      ],
      "stateMutability": "view",
      "type": "function"
    },
    {
      "inputs": [
        {
          "internalType": "uint256",
          "name": "amountA",
          "type": "uint256"
        },
        {
          "internalType": "uint256",
          "name": "amountB",
          "type": "uint256"
        }
      ],
      "name": "removeLiquidity",
      "outputs": [],
      "stateMutability": "nonpayable",
      "type": "function"
    },
    {
      "inputs": [],
      "name": "renounceOwnership",
      "outputs": [],
      "stateMutability": "nonpayable",
      "type": "function"
    },
    {
      "inputs": [
        {
          "internalType": "uint256",
          "name": "amountAIn",
          "type": "uint256"
        }
      ],
      "name": "swapAforB",
      "outputs": [
        {
          "internalType": "uint256",
          "name": "amountBOut",
          "type": "uint256"
        }
      ],
      "stateMutability": "nonpayable",
      "type": "function"
    },
    {
      "inputs": [
        {
          "internalType": "uint256",
          "name": "amountBIn",
          "type": "uint256"
        }
      ],
      "name": "swapBforA",
      "outputs": [
        {
          "internalType": "uint256",
          "name": "amountAOut",
          "type": "uint256"
        }
      ],
      "stateMutability": "nonpayable",
      "type": "function"
    },
    {
      "inputs": [],
      "name": "tokenA",
      "outputs": [
        {
          "internalType": "contract IERC20",
          "name": "",
          "type": "address"
        }
      ],
      "stateMutability": "view",
      "type": "function"
    },
    {
      "inputs": [],
      "name": "tokenB",
      "outputs": [
        {
          "internalType": "contract IERC20",
          "name": "",
          "type": "address"
        }
      ],
      "stateMutability": "view",
      "type": "function"
    },
    {
      "inputs": [
        {
          "internalType": "address",
          "name": "newOwner",
          "type": "address"
        }
      ],
      "name": "transferOwnership",
      "outputs": [],
      "stateMutability": "nonpayable",
      "type": "function"
    }
  ],
  "transactionHash": "0x157378fe4273ed696ed2ce549774da2d63b42a292062946ea6ee6eb49139bd02",
  "args": [
    "0xebeE20D08F66Ad134a4D7a2E68F0F55779a0E845",
    "0xA03CFD875C1483414d7C11E9233e2F75bABc4347"
  ],
  "numDeployments": 1,
  "solcInputHash": "3c50245c6c779bbbe1b5c756860f7abd",
  "bytecode": "0x60806040523480156200001157600080fd5b50604051620012943803806200129483398101604081905262000034916200017a565b33806200005c57604051631e4fbdf760e01b8152600060048201526024015b60405180910390fd5b62000067816200010d565b50600180556001600160a01b038216158015906200008d57506001600160a01b03811615155b620000db5760405162461bcd60e51b815260206004820152601760248201527f496e76616c696420746f6b656e20616464726573736573000000000000000000604482015260640162000053565b600280546001600160a01b039384166001600160a01b03199182161790915560038054929093169116179055620001b2565b600080546001600160a01b038381166001600160a01b0319831681178455604051919092169283917f8be0079c531659141344cd1fd0a4f28419497f9722a3daafe3b4186f6b6457e09190a35050565b80516001600160a01b03811681146200017557600080fd5b919050565b600080604083850312156200018e57600080fd5b62000199836200015d565b9150620001a9602084016200015d565b90509250929050565b6110d280620001c26000396000f3fe608060405234801561001057600080fd5b50600436106100a95760003560e01c80638014a7aa116100715780638014a7aa146101395780638da5cb5b1461014c5780639cd441da1461015d5780639d7de6b314610170578063e4f1f70a14610183578063f2fde38b1461019657600080fd5b80630902f1ac146100ae5780630fc63d10146100d057806341976e09146100fb5780635f64b55b1461011c578063715018a61461012f575b600080fd5b6100b66101a9565b604080519283526020830191909152015b60405180910390f35b6002546100e3906001600160a01b031681565b6040516001600160a01b0390911681526020016100c7565b61010e610109366004610ecc565b61028d565b6040519081526020016100c7565b6003546100e3906001600160a01b031681565b6101376103ac565b005b61010e610147366004610efc565b6103c0565b6000546001600160a01b03166100e3565b61013761016b366004610f15565b6106ad565b61013761017e366004610f15565b6108b2565b61010e610191366004610efc565b610b0c565b6101376101a4366004610ecc565b610de7565b6002546040516370a0823160e01b815230600482015260009182916001600160a01b03909116906370a0823190602401602060405180830381865afa1580156101f6573d6000803e3d6000fd5b505050506040513d601f19601f8201168201806040525081019061021a9190610f37565b6003546040516370a0823160e01b81523060048201529193506001600160a01b0316906370a0823190602401602060405180830381865afa158015610263573d6000803e3d6000fd5b505050506040513d601f19601f820116820180604052508101906102879190610f37565b90509091565b6002546000906001600160a01b03838116911614806102b957506003546001600160a01b038381169116145b6103025760405162461bcd60e51b8152602060048201526015602482015274496e76616c696420746f6b656e206164647265737360581b60448201526064015b60405180910390fd5b60008061030d6101a9565b915091506000821180156103215750600081115b61035e5760405162461bcd60e51b815260206004820152600e60248201526d456d70747920726573657276657360901b60448201526064016102f9565b6002546001600160a01b0390811690851603610399578161038782670de0b6b3a7640000610f66565b6103919190610f83565b949350505050565b8061038783670de0b6b3a7640000610f66565b6103b4610e25565b6103be6000610e52565b565b60006103ca610ea2565b6000821161041a5760405162461bcd60e51b815260206004820152601d60248201527f416d6f756e74206d7573742062652067726561746572207468616e203000000060448201526064016102f9565b6000806104256101a9565b915091506000821180156104395750600081115b6104555760405162461bcd60e51b81526004016102f990610fa5565b61045f8482610fd5565b6104698584610f66565b6104739190610f83565b9250600083116104c55760405162461bcd60e51b815260206004820152601a60248201527f496e73756666696369656e74206f757470757420616d6f756e7400000000000060448201526064016102f9565b8183106104e45760405162461bcd60e51b81526004016102f990610fa5565b6003546001600160a01b03166323b872dd6105076000546001600160a01b031690565b30876040518463ffffffff1660e01b815260040161052793929190610fe8565b6020604051808303816000875af1158015610546573d6000803e3d6000fd5b505050506040513d601f19601f8201168201806040525081019061056a919061100c565b6105865760405162461bcd60e51b81526004016102f99061102e565b6002546001600160a01b031663a9059cbb6105a96000546001600160a01b031690565b6040516001600160e01b031960e084901b1681526001600160a01b039091166004820152602481018690526044016020604051808303816000875af11580156105f6573d6000803e3d6000fd5b505050506040513d601f19601f8201168201806040525081019061061a919061100c565b6106365760405162461bcd60e51b81526004016102f990611065565b6000546001600160a01b0316600354600254604080516001600160a01b03938416815291831660208301528101879052606081018690529116907fd36cc53ba71bc76a3db3364981f5296dd4ca5eba0e8c89874f2170515bd20d249060800160405180910390a250506106a860018055565b919050565b6106b5610e25565b6106bd610ea2565b6000821180156106cd5750600081115b6107195760405162461bcd60e51b815260206004820152601e60248201527f416d6f756e7473206d7573742062652067726561746572207468616e2030000060448201526064016102f9565b6002546001600160a01b03166323b872dd61073c6000546001600160a01b031690565b30856040518463ffffffff1660e01b815260040161075c93929190610fe8565b6020604051808303816000875af115801561077b573d6000803e3d6000fd5b505050506040513d601f19601f8201168201806040525081019061079f919061100c565b6107bb5760405162461bcd60e51b81526004016102f990611065565b6003546001600160a01b03166323b872dd6107de6000546001600160a01b031690565b30846040518463ffffffff1660e01b81526004016107fe93929190610fe8565b6020604051808303816000875af115801561081d573d6000803e3d6000fd5b505050506040513d601f19601f82011682018060405250810190610841919061100c565b61085d5760405162461bcd60e51b81526004016102f99061102e565b60005460408051848152602081018490526001600160a01b03909216917fac1d76749e5447b7b16f5ab61447e1bd502f3bb4807af3b28e620d1700a6ee45910160405180910390a26108ae60018055565b5050565b6108ba610e25565b6108c2610ea2565b6000821180156108d25750600081115b61091e5760405162461bcd60e51b815260206004820152601e60248201527f416d6f756e7473206d7573742062652067726561746572207468616e2030000060448201526064016102f9565b6000806109296101a9565b9150915081841115801561093d5750808311155b6109595760405162461bcd60e51b81526004016102f990610fa5565b6002546001600160a01b031663a9059cbb61097c6000546001600160a01b031690565b6040516001600160e01b031960e084901b1681526001600160a01b039091166004820152602481018790526044016020604051808303816000875af11580156109c9573d6000803e3d6000fd5b505050506040513d601f19601f820116820180604052508101906109ed919061100c565b610a095760405162461bcd60e51b81526004016102f990611065565b6003546001600160a01b031663a9059cbb610a2c6000546001600160a01b031690565b6040516001600160e01b031960e084901b1681526001600160a01b039091166004820152602481018690526044016020604051808303816000875af1158015610a79573d6000803e3d6000fd5b505050506040513d601f19601f82011682018060405250810190610a9d919061100c565b610ab95760405162461bcd60e51b81526004016102f99061102e565b60005460408051868152602081018690526001600160a01b03909216917f96cd817c6329656790ef8fba7675405193677d39619571282f5e21f3a98cd059910160405180910390a250506108ae60018055565b6000808211610b5d5760405162461bcd60e51b815260206004820152601d60248201527f416d6f756e74206d7573742062652067726561746572207468616e203000000060448201526064016102f9565b600080610b686101a9565b91509150600082118015610b7c5750600081115b610b985760405162461bcd60e51b81526004016102f990610fa5565b610ba28483610fd5565b610bac8583610f66565b610bb69190610f83565b925060008311610c085760405162461bcd60e51b815260206004820152601a60248201527f496e73756666696369656e74206f757470757420616d6f756e7400000000000060448201526064016102f9565b808310610c275760405162461bcd60e51b81526004016102f990610fa5565b6002546001600160a01b03166323b872dd610c4a6000546001600160a01b031690565b30876040518463ffffffff1660e01b8152600401610c6a93929190610fe8565b6020604051808303816000875af1158015610c89573d6000803e3d6000fd5b505050506040513d601f19601f82011682018060405250810190610cad919061100c565b610cc95760405162461bcd60e51b81526004016102f990611065565b6003546001600160a01b031663a9059cbb610cec6000546001600160a01b031690565b6040516001600160e01b031960e084901b1681526001600160a01b039091166004820152602481018690526044016020604051808303816000875af1158015610d39573d6000803e3d6000fd5b505050506040513d601f19601f82011682018060405250810190610d5d919061100c565b610d795760405162461bcd60e51b81526004016102f99061102e565b6000546001600160a01b0316600254600354604080516001600160a01b03938416815291831660208301528101879052606081018690529116907fd36cc53ba71bc76a3db3364981f5296dd4ca5eba0e8c89874f2170515bd20d249060800160405180910390a25050919050565b610def610e25565b6001600160a01b038116610e1957604051631e4fbdf760e01b8152600060048201526024016102f9565b610e2281610e52565b50565b6000546001600160a01b031633146103be5760405163118cdaa760e01b81523360048201526024016102f9565b600080546001600160a01b038381166001600160a01b0319831681178455604051919092169283917f8be0079c531659141344cd1fd0a4f28419497f9722a3daafe3b4186f6b6457e09190a35050565b600260015403610ec557604051633ee5aeb560e01b815260040160405180910390fd5b6002600155565b600060208284031215610ede57600080fd5b81356001600160a01b0381168114610ef557600080fd5b9392505050565b600060208284031215610f0e57600080fd5b5035919050565b60008060408385031215610f2857600080fd5b50508035926020909101359150565b600060208284031215610f4957600080fd5b5051919050565b634e487b7160e01b600052601160045260246000fd5b8082028115828204841417610f7d57610f7d610f50565b92915050565b600082610fa057634e487b7160e01b600052601260045260246000fd5b500490565b602080825260169082015275496e73756666696369656e74206c697175696469747960501b604082015260600190565b80820180821115610f7d57610f7d610f50565b6001600160a01b039384168152919092166020820152604081019190915260600190565b60006020828403121561101e57600080fd5b81518015158114610ef557600080fd5b60208082526019908201527f5472616e73666572206f6620746f6b656e42206661696c656400000000000000604082015260600190565b60208082526019908201527f5472616e73666572206f6620746f6b656e41206661696c65640000000000000060408201526060019056fea264697066735822122056522ddb1598486c88511d75ee23b4fef103e87276ab20732a5d3487be59c34f64736f6c63430008140033",
  "devdoc": {
    "author": "Ivan Carneiro",
    "details": "A simple decentralized exchange implementation that enables swapping between two ERC20 tokens using the constant product formula (x+dx)(y-dy)=xy for price calculation.",
    "errors": {
      "OwnableInvalidOwner(address)": [
        {
          "details": "The owner is not a valid owner account. (eg. `address(0)`)"
        }
      ],
      "OwnableUnauthorizedAccount(address)": [
        {
          "details": "The caller account is not authorized to perform an operation."
        }
      ],
      "ReentrancyGuardReentrantCall()": [
        {
          "details": "Unauthorized reentrant call."
        }
      ]
    },
    "events": {
      "LiquidityAdded(address,uint256,uint256)": {
        "details": "Emitted when liquidity is added to the pool by the owner",
        "params": {
          "amountA": "Amount of TokenA added",
          "amountB": "Amount of TokenB added",
          "provider": "Address of the liquidity provider (owner)"
        }
      },
      "LiquidityRemoved(address,uint256,uint256)": {
        "details": "Emitted when liquidity is removed from the pool by the owner",
        "params": {
          "amountA": "Amount of TokenA removed",
          "amountB": "Amount of TokenB removed",
          "provider": "Address of the liquidity provider (owner)"
        }
      },
      "TokenSwapped(address,address,address,uint256,uint256)": {
        "details": "Emitted when a token swap occurs",
        "params": {
          "amountIn": "Amount of tokens being sold",
          "amountOut": "Amount of tokens being bought",
          "tokenIn": "Address of the token being sold",
          "tokenOut": "Address of the token being bought",
          "user": "Address of the user performing the swap"
        }
      }
    },
    "kind": "dev",
    "methods": {
      "addLiquidity(uint256,uint256)": {
        "details": "Allows only the owner to add liquidity to the pool",
        "params": {
          "amountA": "Amount of TokenA to add",
          "amountB": "Amount of TokenB to add"
        }
      },
      "constructor": {
        "details": "Constructor initializes the DEX with addresses of both tokens",
        "params": {
          "_tokenA": "Address of the first token",
          "_tokenB": "Address of the second token"
        }
      },
      "getPrice(address)": {
        "details": "Returns the current price of the specified token in terms of the other token",
        "params": {
          "_token": "Address of the token to get the price for"
        },
        "returns": {
          "_0": "Price of the token with 18 decimal places"
        }
      },
      "getReserves()": {
        "details": "Returns the current reserves of both tokens in the pool",
        "returns": {
          "reserveA": "Current balance of TokenA",
          "reserveB": "Current balance of TokenB"
        }
      },
      "owner()": {
        "details": "Returns the address of the current owner."
      },
      "removeLiquidity(uint256,uint256)": {
        "details": "Allows only the owner to remove liquidity from the pool",
        "params": {
          "amountA": "Amount of TokenA to remove",
          "amountB": "Amount of TokenB to remove"
        }
      },
      "renounceOwnership()": {
        "details": "Leaves the contract without owner. It will not be possible to call `onlyOwner` functions. Can only be called by the current owner. NOTE: Renouncing ownership will leave the contract without an owner, thereby disabling any functionality that is only available to the owner."
      },
      "swapAforB(uint256)": {
        "details": "Swaps TokenA for TokenB using the constant product formula",
        "params": {
          "amountAIn": "Amount of TokenA to swap"
        },
        "returns": {
          "amountBOut": "Amount of TokenB received"
        }
      },
      "swapBforA(uint256)": {
        "details": "Swaps TokenB for TokenA using the constant product formula",
        "params": {
          "amountBIn": "Amount of TokenB to swap"
        },
        "returns": {
          "amountAOut": "Amount of TokenA received"
        }
      },
      "transferOwnership(address)": {
        "details": "Transfers ownership of the contract to a new account (`newOwner`). Can only be called by the current owner."
      }
    },
    "title": "SimpleDEX",
    "version": 1
  },
  "userdoc": {
    "kind": "user",
    "methods": {
      "addLiquidity(uint256,uint256)": {
        "notice": "Only the owner can call this functionTokens must be approved before calling this function"
      },
      "getPrice(address)": {
        "notice": "Price is expressed as how many of the other token you get for 1 of this token"
      },
      "removeLiquidity(uint256,uint256)": {
        "notice": "Only the owner can call this function"
      },
      "swapAforB(uint256)": {
        "notice": "Tokens must be approved before calling this function"
      },
      "swapBforA(uint256)": {
        "notice": "Tokens must be approved before calling this function"
      },
      "tokenA()": {
        "notice": "The first token in the trading pair"
      },
      "tokenB()": {
        "notice": "The second token in the trading pair"
      }
    },
    "notice": "The contract implements security measures including reentrancy protection and access control.",
    "version": 1
  },
  "storageLayout": {
    "storage": [
      {
        "astId": 8,
        "contract": "contracts/SimpleDEX.sol:SimpleDEX",
        "label": "_owner",
        "offset": 0,
        "slot": "0",
        "type": "t_address"
      },
      {
        "astId": 944,
        "contract": "contracts/SimpleDEX.sol:SimpleDEX",
        "label": "_status",
        "offset": 0,
        "slot": "1",
        "type": "t_uint256"
      },
      {
        "astId": 1016,
        "contract": "contracts/SimpleDEX.sol:SimpleDEX",
        "label": "tokenA",
        "offset": 0,
        "slot": "2",
        "type": "t_contract(IERC20)877"
      },
      {
        "astId": 1020,
        "contract": "contracts/SimpleDEX.sol:SimpleDEX",
        "label": "tokenB",
        "offset": 0,
        "slot": "3",
        "type": "t_contract(IERC20)877"
      }
    ],
    "types": {
      "t_address": {
        "encoding": "inplace",
        "label": "address",
        "numberOfBytes": "20"
      },
      "t_contract(IERC20)877": {
        "encoding": "inplace",
        "label": "contract IERC20",
        "numberOfBytes": "20"
      },
      "t_uint256": {
        "encoding": "inplace",
        "label": "uint256",
        "numberOfBytes": "32"
      }
    }
  }
}